:100000000C9462000C948A000C948A000C948A0070
:100010000C948A000C948A000C948A000C948A0038
:100020000C948A000C948A000C948A000C948A0028
:100030000C948A000C948A000C948A000C948A0018
:100040000C9450020C948A000C94C0020C949A02F6
:100050000C948A000C948A000C948A000C948A00F8
:100060000C948A000C948A000000000023002600F3
:10007000290000000008000201000003040700003E
:1000800000000000000000000000250028002B00F8
:1000900000000000240027002A00040404040404D3
:1000A0000404020202020202030303030303010227
:1000B00004081020408001020408102001020408F6
:1000C0001020D70311241FBECFEFD8E0DEBFCDBF75
:1000D00011E0A0E0B1E0E2E2F8E002C005900D928C
:1000E000A636B107D9F722E0A6E6B1E001C01D921D
:1000F000AE30B207E1F710E0C2E6D0E004C02197CD
:10010000FE010E940404C136D107C9F70E94F20221
:100110000C940F040C940000CF93DF9390E0FC014B
:10012000E255FF4F2491FC01E656FF4F849188234E
:10013000C1F090E0880F991FFC01E057FF4FC59177
:10014000D491FC01EA57FF4FA591B4919FB7F89461
:100150003881822F809583238883EC91E22BEC9366
:100160009FBFDF91CF91089590E0FC01EE58FF4FC3
:100170002491FC01E255FF4F3491FC01E656FF4FFC
:10018000E491EE23B9F1222339F1233091F038F4D0
:100190002130A9F0223001F584B58F7D12C02730BF
:1001A00091F02830A1F02430B9F4809180008F7D47
:1001B00003C0809180008F77809380000DC084B54C
:1001C0008F7784BD09C08091B0008F7703C0809184
:1001D000B0008F7D8093B000F0E0EE0FFF1FE85974
:1001E000FF4FA591B491EC913E2381E090E021F482
:1001F00080E0089580E090E008953FB7F894809102
:100200006D0190916E01A0916F01B091700126B5C2
:10021000A89B05C02F3F19F00196A11DB11D3FBF3E
:10022000BA2FA92F982F8827820F911DA11DB11DCC
:10023000BC01CD0142E0660F771F881F991F4A95C8
:10024000D1F70895CF92DF92EF92FF920F931F9311
:10025000CF93DF936C017A018B01C0E0D0E0CE1523
:10026000DF0589F0D8016D918D01D601ED91FC91EA
:100270000190F081E02DC6010995892B11F47E01D2
:1002800002C02196ECCFC701DF91CF911F910F9152
:10029000FF90EF90DF90CF900895089580E090E078
:1002A0000895FC01538D448D252F30E0842F90E07C
:1002B000821B930B541710F0CF9608950197089561
:1002C000FC01918D828D981761F0828DDF01A80F5E
:1002D000B11D5D968C91928D9F5F9F73928F90E080
:1002E00008958FEF9FEF0895FC01918D828D9817EF
:1002F00031F0828DE80FF11D858D90E008958FEF2C
:100300009FEF0895FC01918D228D892F90E0805CF4
:100310009F4F821B91098F739927089581E791E080
:100320000E94820121E0892B09F420E0822F0895A8
:10033000FC01848DDF01A80FB11DA35ABF4F2C9182
:10034000848D90E001968F739927848FA689B78951
:100350002C93A089B1898C9180648C93938D848D2A
:10036000981306C00288F389E02D80818F7D8083F9
:100370000895EF92FF920F931F93CF93DF93EC01B9
:1003800081E0888F9B8D8C8D981305C0E889F98951
:10039000808185FD24C0F62E0B8D10E00F5F1F4F6E
:1003A0000F731127E02E8C8DE8120CC00FB607FCDE
:1003B000FACFE889F989808185FFF5CFCE010E94C7
:1003C0009801F1CF8B8DFE01E80FF11DE35AFF4F2D
:1003D000F0820B8FEA89FB898081806207C0EE89F9
:1003E000FF896083E889F98980818064808381E066
:1003F00090E0DF91CF911F910F91FF90EF900895C2
:10040000CF93DF93EC01888D8823C9F0EA89FB89BB
:10041000808185FD05C0A889B9898C9186FD0FC0B2
:100420000FB607FCF5CF808185FFF2CFA889B98987
:100430008C9185FFEDCFCE010E949801E7CFDF912F
:10044000CF91089580E090E0892B29F00E948E01E1
:1004500081110C9400000895CF93DF93009779F0F9
:10046000FC0101900020E9F73197AF01481B590BBF
:10047000BC0181E791E00E942201EC0102C0C0E0D2
:10048000D0E042E050E064E171E081E791E00E9459
:1004900022018C0F9D1FDF91CF9108950E940A04C5
:1004A0001F920F920FB60F9211242F933F938F93A9
:1004B0009F93AF93BF938091690190916A01A0913E
:1004C0006B01B0916C013091680123E0230F2D374F
:1004D00020F40196A11DB11D05C026E8230F029648
:1004E000A11DB11D209368018093690190936A0159
:1004F000A0936B01B0936C0180916D0190916E019E
:10050000A0916F01B09170010196A11DB11D809362
:100510006D0190936E01A0936F01B0937001BF9134
:10052000AF919F918F913F912F910F900FBE0F90A0
:100530001F9018951F920F920FB60F9211242F93B0
:100540003F934F935F936F937F938F939F93AF935B
:10055000BF93EF93FF9381E791E00E949801FF9191
:10056000EF91BF91AF919F918F917F916F915F912B
:100570004F913F912F910F900FBE0F901F901895A4
:100580001F920F920FB60F9211242F938F939F9368
:10059000EF93FF93E0918101F09182018081E091DE
:1005A0008701F091880182FD12C0908180918A01BB
:1005B0008F5F8F7320918B01821751F0E0918A0138
:1005C000F0E0EF58FE4F958F80938A0101C0808143
:1005D000FF91EF919F918F912F910F900FBE0F90F0
:1005E0001F901895789484B5826084BD84B581602D
:1005F00084BD85B5826085BD85B5816085BD8091EE
:100600006E00816080936E00109281008091810065
:10061000826080938100809181008160809381005D
:10062000809180008160809380008091B10084601F
:100630008093B1008091B00081608093B000809180
:100640007A00846080937A0080917A00826080933F
:100650007A0080917A00816080937A0080917A009C
:10066000806880937A001092C10082E00E948C0022
:1006700083E00E948C00E0918101F091820182E090
:100680008083E0917D01F0917E011082E0917F01F5
:10069000F09180018FEC808310928901E0918501B7
:1006A000F091860186E08083E0918301F0918401DE
:1006B000808180618083E0918301F0918401808159
:1006C00088608083E0918301F0918401808180685B
:1006D0008083E0918301F091840180818F7D80830C
:1006E00082E00E94B400C1E0892B09F4C0E0C0930D
:1006F000010183E00E94B40021E0892B09F420E08D
:1007000020930001CC23B1F080916701813021F466
:1007100080916601281771F0222321F087E191E092
:100720000E942C0280910001811104C086E391E0B7
:100730000E942C0280910101811108C08091670103
:10074000882321F085E591E00E942C02809101012F
:100750008093670180910001809366010E94FD00F3
:100760004B015C0184E6C82ED12CE12CF12C0E94B7
:10077000FD00DC01CB0188199909AA09BB09883E53
:100780009340A105B10558F021E0C21AD108E10853
:10079000F10888EE880E83E0981EA11CB11CC114DC
:1007A000D104E104F10419F70E94220299CFE1E794
:1007B000F1E01382128288EE93E0A0E0B0E084833F
:1007C0009583A683B78386E091E09183808385EC4F
:1007D00090E09587848784EC90E09787868780EC0B
:1007E00090E0918B808B81EC90E0938B828B82ECFC
:1007F00090E0958B848B86EC90E0978B868B118EA6
:10080000128E138E148E0895EE0FFF1F0590F49133
:10081000E02D099481E090E0F8940C940F04F89492
:02082000FFCF08
:10082200010100000000B901220151010002820110
:10083200600174010D0A0052656D6F746520446990
:1008420073636F6E6E65637465643A205265737488
:10085200204D6F64650052656D6F74652044697345
:10086200636F6E6E65637465643A205465737420B9
:100872004D6F64650052656D6F746520436F6E6ED7
:060882006563746564006B
:00000001FF
