:100000000C949C000C94C4000C94C4000C94C40088
:100010000C94C4000C94C4000C94C4000C94C40050
:100020000C94C4000C94C4000C94C4000C94C40040
:100030000C94C4000C94C4000C94C4000C94C40030
:100040000C94B6040C94C4000C9426050C94000582
:100050000C94C4000C94C4000C94C4000C94C40010
:100060000C94C4000C94C4005C07F608F608F6086B
:10007000F608F608F608F608F608F608F608F60890
:10008000F608F608F608F608F608F608F608F60880
:10009000F608F608F608F608F608F608F6084A071D
:1000A000F6084D07F60866072407F60813072B071E
:1000B0001307F608F608F60839073C073F07430719
:1000C0004607F6084D07F6080C07F6082707F60856
:1000D0003507F60810073207F6082E070000000063
:1000E000240027002A0000000000250028002B0023
:1000F0000000000023002600290004040404040476
:1001000004040202020202020303030303030102C6
:100110000408102040800102040810200102040895
:100120001020000000080002010000030407000086
:10013000000000000000F90811241FBECFEFD8E036
:10014000DEBFCDBF11E0A0E0B1E0EAEAF2E102C01B
:1001500005900D92AC3BB107D9F722E0ACEBB1E0D2
:1001600001C01D92AE36B207E1F710E0CCE9D0E055
:1001700004C02197FE010E944809CB39D107C9F775
:100180000E9458050C9453090C940000833081F0B0
:1001900028F4813099F08230A1F008958730A9F0D9
:1001A0008830B9F08430D1F4809180008F7D03C015
:1001B000809180008F7780938000089584B58F7739
:1001C00002C084B58F7D84BD08958091B0008F7783
:1001D00003C08091B0008F7D8093B0000895CF93CD
:1001E000DF93282F30E0F901EE5DFE4F8491F90195
:1001F000E25FFE4FD491F901E650FF4FC491CC234A
:1002000091F081110E94C600EC2FF0E0EE0FFF1F6D
:10021000E051FF4FA591B491EC91ED2381E090E086
:1002200021F480E002C080E090E0DF91CF9108955A
:100230001F93CF93DF93282F30E0F901EE5DFE4F3F
:100240008491F901E25FFE4FD491F901E650FF4F2E
:10025000C491CC23C9F0162F81110E94C600EC2F47
:10026000F0E0EE0FFF1FEA51FF4FA591B4918FB759
:10027000F894111105C09C91ED2FE095E92302C07F
:10028000EC91ED2BEC938FBFDF91CF911F910895EF
:100290003FB7F8948091CD019091CE01A091CF010C
:1002A000B091D00126B5A89B05C02F3F19F001964B
:1002B000A11DB11D3FBFBA2FA92F982F8827820FEC
:1002C000911DA11DB11DBC01CD0142E0660F771F3C
:1002D000881F991F4A95D1F708958F929F92AF92E8
:1002E000BF92CF92DF92EF92FF926B017C010E944E
:1002F00048014B015C01C114D104E104F104F1F0A7
:100300000E944801DC01CB0188199909AA09BB099F
:10031000883E9340A105B10570F321E0C21AD108CF
:10032000E108F10888EE880E83E0981EA11CB11C3C
:10033000C114D104E104F10419F7DDCFFF90EF906F
:10034000DF90CF90BF90AF909F908F900895CF9205
:10035000DF92EF92FF920F931F93CF93DF936C0185
:100360007A018B01C0E0D0E0CE15DF0589F0D8011D
:100370006D918D01D601ED91FC910190F081E02D00
:10038000C6010995892B11F47E0102C02196ECCF9C
:10039000C701DF91CF911F910F91FF90EF90DF90F8
:1003A000CF900895089580E090E00895FC01538D6A
:1003B000448D252F30E0842F90E0821B930B54173F
:1003C00010F0CF96089501970895FC01918D828DCC
:1003D000981761F0828DDF01A80FB11D5D968C9199
:1003E000928D9F5F9F73928F90E008958FEF9FEFA4
:1003F0000895FC01918D828D981731F0828DE80F60
:10040000F11D858D90E008958FEF9FEF0895FC0119
:10041000918D228D892F90E0805C9F4F821B9109E6
:100420008F739927089581ED91E00E94070221E0E2
:10043000892B09F420E0822F0895FC01848DDF01CF
:10044000A80FB11DA35ABF4F2C91848D90E0019647
:100450008F739927848FA689B7892C93A089B18936
:100460008C9180648C93938D848D981306C0028840
:10047000F389E02D80818F7D80830895EF92FF9234
:100480000F931F93CF93DF93EC0181E0888F9B8DB7
:100490008C8D981305C0E889F989808185FD24C079
:1004A000F62E0B8D10E00F5F1F4F0F731127E02EFC
:1004B0008C8DE8120CC00FB607FCFACFE889F989D9
:1004C000808185FFF5CFCE010E941D02F1CF8B8D7B
:1004D000FE01E80FF11DE35AFF4FF0820B8FEA890E
:1004E000FB898081806207C0EE89FF896083E8898B
:1004F000F98980818064808381E090E0DF91CF91F1
:100500001F910F91FF90EF900895CF93DF93EC012F
:10051000888D8823C9F0EA89FB89808185FD05C023
:10052000A889B9898C9186FD0FC00FB607FCF5CF5D
:10053000808185FFF2CFA889B9898C9185FFEDCFA5
:10054000CE010E941D02E7CFDF91CF91089580E098
:1005500090E0892B29F00E94130281110C94000075
:100560000895EF92FF920F931F93CF93DF93EB01C8
:100570008C017B0188E0E80EF11C68812296F8016D
:1005800080810E5F1F4F0E941801CE15DF05A9F76D
:10059000DF91CF911F910F91FF90EF900895CF932E
:1005A000DF93CDB7DEB728970FB6F894DEBF0FBE46
:1005B000CDBF88E0E0E0F1E0DE01119601900D9200
:1005C0008A95E1F7BE016F5F7F4F82E591E00E945F
:1005D000B102BE016F5F7F4F8AE591E00E94B102D8
:1005E00060E08CE00E94180160E08DE00E9418013C
:1005F00028960FB6F894DEBF0FBECDBFDF91CF9126
:100600000895CF93DF93CDB7DEB728970FB6F89450
:10061000DEBF0FBECDBF88E0E8E0F1E0DE0111965D
:1006200001900D928A95E1F7BE016F5F7F4F8AE5D9
:1006300091E00E94B10228960FB6F894DEBF0FBE7B
:10064000CDBFDF91CF910895CF93DF93CDB7DEB7C4
:1006500028970FB6F894DEBF0FBECDBF88E0E0E16B
:10066000F1E0DE01119601900D928A95E1F7BE014D
:100670006F5F7F4F8AE591E00E94B10228960FB626
:10068000F894DEBF0FBECDBFDF91CF910895CF9319
:10069000DF93CDB7DEB728970FB6F894DEBF0FBE55
:1006A000CDBF88E0E8E1F1E0DE01119601900D9206
:1006B0008A95E1F7BE016F5F7F4F8AE591E00E9466
:1006C000B10228960FB6F894DEBF0FBECDBFDF9102
:1006D000CF910895CF93DF93CDB7DEB728970FB6AC
:1006E000F894DEBF0FBECDBF88E0E0E2F1E0DE01AE
:1006F000119601900D928A95E1F7BE016F5F7F4FD1
:100700008AE591E00E94B10228960FB6F894DEBF08
:100710000FBECDBFDF91CF910895CF93DF93CDB7BB
:10072000DEB728970FB6F894DEBF0FBECDBF88E0C6
:10073000E8E0F1E0DE01119601900D928A95E1F773
:10074000BE016F5F7F4F82E591E00E94B102289663
:100750000FB6F894DEBF0FBECDBFDF91CF910895E5
:10076000CF93DF93CDB7DEB728970FB6F894DEBFEF
:100770000FBECDBF88E0E0E1F1E0DE01119601900F
:100780000D928A95E1F7BE016F5F7F4F82E591E0A0
:100790000E94B10228960FB6F894DEBF0FBECDBFFF
:1007A000DF91CF910895CF93DF93CDB7DEB7289730
:1007B0000FB6F894DEBF0FBECDBF88E0E8E1F1E0F0
:1007C000DE01119601900D928A95E1F7BE016F5FEF
:1007D0007F4F82E591E00E94B10228960FB6F8940F
:1007E000DEBF0FBECDBFDF91CF910895CF93DF93D2
:1007F000CDB7DEB728970FB6F894DEBF0FBECDBFDA
:1008000088E0E0E2F1E0DE01119601900D928A9518
:10081000E1F7BE016F5F7F4F82E591E00E94B10278
:1008200028960FB6F894DEBF0FBECDBFDF91CF91F3
:100830000895009769F0FC0101900020E9F73197D5
:10084000AF01481B590BBC0181ED91E00C94A7014D
:1008500080E090E00895CF93DF930E941904EC01AB
:1008600082E691E00E9419048C0F9D1FDF91CF91C9
:1008700008958F929F92AF92BF92CF92DF92EF92A4
:10088000FF920F931F93CF93DF93CDB7DEB7A1975E
:100890000FB6F894DEBF0FBECDBF6C01990FEE0806
:1008A000FF08F7FE31C0E091D101F091D201019033
:1008B000F081E02D6DE281ED91E009958C01222718
:1008C0003327A9012C193D094E095F0919A2CE0150
:1008D00081967C019AE0892E912CA12CB12CCA0121
:1008E000B901A50194010E942609605DF701629398
:1008F0007F01211531054105510589F7CF010E947E
:100900001904800F911F1DC0A701960119A28E0125
:100910000F5D1F4F8AE0C82ED12CE12CF12CCA01AB
:10092000B901A70196010E942609605DF801629352
:100930008F01211531054105510589F7CF010E942D
:100940001904A1960FB6F894DEBF0FBECDBFDF919C
:10095000CF911F910F91FF90EF90DF90CF90BF90BC
:10096000AF909F908F9008950E944E091F920F9212
:100970000FB60F9211242F933F938F939F93AF93B2
:10098000BF938091C9019091CA01A091CB01B09110
:10099000CC013091C80123E0230F2D3720F40196BC
:1009A000A11DB11D05C026E8230F0296A11DB11D92
:1009B0002093C8018093C9019093CA01A093CB01F1
:1009C000B093CC018091CD019091CE01A091CF0147
:1009D000B091D0010196A11DB11D8093CD019093DE
:1009E000CE01A093CF01B093D001BF91AF919F9161
:1009F0008F913F912F910F900FBE0F901F901895E0
:100A00001F920F920FB60F9211242F933F934F9383
:100A10005F936F937F938F939F93AF93BF93EF9366
:100A2000FF9381ED91E00E941D02FF91EF91BF9134
:100A3000AF919F918F917F916F915F914F913F9176
:100A40002F910F900FBE0F901F9018951F920F922D
:100A50000FB60F9211242F938F939F93EF93FF93D1
:100A6000E091E101F091E2018081E091E701F091F4
:100A7000E80182FD12C090818091EA018F5F8F733F
:100A80002091EB01821751F0E091EA01F0E0EF5282
:100A9000FE4F958F8093EA0101C08081FF91EF9115
:100AA0009F918F912F910F900FBE0F901F901895CF
:100AB000CF93DF93CDB7DEB728970FB6F894DEBF9C
:100AC0000FBECDBF789484B5826084BD84B581604B
:100AD00084BD85B5826085BD85B5816085BD809109
:100AE0006E00816080936E00109281008091810081
:100AF0008260809381008091810081608093810079
:100B0000809180008160809380008091B10084603A
:100B10008093B1008091B00081608093B00080919B
:100B20007A00846080937A0080917A00826080935A
:100B30007A0080917A00816080937A0080917A00B7
:100B4000806880937A001092C10042E050E0FA0180
:100B5000E25FFE4F2491FA01E650FF4F8491882313
:100B6000C9F090E0880F991FFC01E452FF4F659196
:100B70007491FC01EA51FF4FA591B4919FB7F8948D
:100B8000FB013081822F809583238083EC912E2B73
:100B90002C939FBF4330510519F043E050E0D7CF6D
:100BA00023E030E0F901E25FFE4F4491F901E650A5
:100BB000FF4F8491882399F090E0880F991FFC01E2
:100BC000E452FF4FA591B491FC01EA51FF4F85918A
:100BD00094918FB7F894EC91E42BEC938FBF2F5F37
:100BE0003F4F2E303105F1F613E061E0812F0E9476
:100BF00018011F5F1C30C9F760E08CE00E941801EB
:100C000060E08DE00E9418010E94CF02E091E101B6
:100C1000F091E20182E08083E091DD01F091DE015C
:100C20001082E091DF01F091E0018FEC808310925F
:100C3000E901E091E501F091E60186E08083E09131
:100C4000E301F091E401808180618083E091E30120
:100C5000F091E401808188608083E091E301F0916C
:100C6000E401808180688083E091E301F091E401F8
:100C700080818F7D808384E691E00E942B0484E64E
:100C800091E00E942B0485E691E00E942B048FE600
:100C900091E00E942B0485E691E00E942B042FB77F
:100CA000F8948091C9019091CA01A091CB01B091B3
:100CB000CC012FBF8093C4019093C501A093C601BE
:100CC000B093C7014091C0015091C1016091C20130
:100CD0007091C3018C019D01041B150B260B370B72
:100CE0000093BC011093BD012093BE013093BF015E
:100CF000083C11052105310508F47AC08093C00134
:100D00009093C101A093C201B093C30184E691E026
:100D10000E942B0489E791E00E942B048DE891E06A
:100D20000E94190482E00E94EF000E9439048CE8BE
:100D300091E00E94190483E00E94EF000E943904B0
:100D40008CE891E00E94190402E511E0F80180812D
:100D50000E5F1F4F0E94EF000E943904F1E00A3538
:100D60001F07A1F787E791E00E9419040AE511E047
:100D7000F80180810E5F1F4F0E94EF000E9439042E
:100D8000F1E002361F07A1F78CE891E00E941904F8
:100D90008CE00E94EF000E9439048CE891E00E94F0
:100DA00019048DE00E94EF000E9439048FE891E061
:100DB0000E942B0482E00E94EF00892B19F481E944
:100DC00091E014C082E00E94EF00019789F483E073
:100DD0000E94EF00892B19F482EA91E007C083E0BA
:100DE0000E94EF00019721F48FEA91E00E942B040A
:100DF00082E00E94EF00892B09F074C081ED91E040
:100E00000E94E50181978A33910508F0EFC18C5C5F
:100E10009F4FFC010C94480988E0E8E2F1E006C02D
:100E20000E94F603E3C188E0E0E3F1E0DE01119601
:100E300001900D928A95E1F7BE016F5F7F4F82E5C9
:100E400091E00E94B102D2C10E94D303CFC188E0D9
:100E5000E0E0F1E0EBCF0E94B003C8C188E0E8E336
:100E6000F1E0E4CF0E948D03C1C188E0E8E2F1E047
:100E700017C00E946A03BAC10E944703B7C188E045
:100E8000E0E0F1E00DC00E942403B0C188E0E8E397
:100E9000F1E006C00E940103A9C188E0E0E3F1E0AF
:100EA000DE01119601900D928A95E1F7BE016F5F08
:100EB0007F4F8AE591E0C5CF8CE00E94EF00892B3F
:100EC00011F461E001C060E08CE009C08DE00E9497
:100ED000EF00892B11F461E001C060E08DE00E9419
:100EE000180184C182E00E94EF00019709F07EC1E1
:100EF00083E00E94EF00892B09F476C183E00E9411
:100F0000EF00019709F072C104E110E061E08DE0AB
:100F10000E94180164EF71E080E090E00E946D0192
:100F200060E08DE00E94180164EF71E080E090E0E5
:100F30000E946D010150110949F704E110E061E0E0
:100F40008DE00E9418016AEF70E080E090E00E945E
:100F50006D0160E08DE00E9418016AEF70E080E0B2
:100F600090E00E946D010150110949F761E08CE0A9
:100F70000E94180160ED77E080E090E00E946D0132
:100F800060E08CE00E9418010E94CF0268EE73E0DE
:100F900080E090E00E946D0160E084E00E94180112
:100FA00061E085E00E94180160ED77E080E090E06C
:100FB0000E946D010E94CF0268EE73E080E090E035
:100FC0000E946D0161E084E00E94180160E085E00C
:100FD0000E94180160ED77E080E090E00E946D01D2
:100FE0000E94CF0268EE73E080E090E00E946D0105
:100FF00060E086E00E94180161E087E00E9418012D
:1010000060ED77E080E090E00E946D010E94CF02E9
:1010100068EE73E080E090E00E946D0161E086E0A0
:101020000E94180160E087E00E94180160ED77E0FF
:1010300080E090E00E946D010E94CF0268EE73E0B4
:1010400080E090E00E946D0160E088E00E9418015D
:1010500061E089E00E94180160ED77E080E090E0B7
:101060000E946D010E94CF0268EE73E080E090E084
:101070000E946D0161E088E00E94180160E089E053
:101080000E94180160ED77E080E090E00E946D0121
:101090000E94CF0268EE73E080E090E00E946D0154
:1010A00060E08AE00E94180161E08BE00E94180174
:1010B00060ED77E080E090E00E946D010E94CF0239
:1010C00068EE73E080E090E00E946D0161E08AE0EC
:1010D0000E94180160E08BE00E94180160ED77E04B
:1010E00080E090E00E946D010E94CF0268EE73E004
:1010F00080E090E00E946D010E94F60360ED77E0D1
:1011000080E090E00E946D010E94CF0268EE73E0E3
:1011100080E090E00E946D010E948D0360ED77E019
:1011200080E090E00E946D010E94CF0268EE73E0C3
:1011300080E090E00E946D010E94D30360ED77E0B3
:1011400080E090E00E946D010E94CF0268EE73E0A3
:1011500080E090E00E946D010E94B00360ED77E0B6
:1011600080E090E00E946D010E94CF0268EE73E083
:1011700080E090E00E946D010E946A0360ED77E0DC
:1011800080E090E00E946D010E94CF0268EE73E063
:1011900080E090E00E946D010E94010360ED77E025
:1011A00080E090E00E946D010E94CF0268EE73E043
:1011B00080E090E00E946D010E94470360ED77E0BF
:1011C00080E090E00E946D010E94CF0268EE73E023
:1011D00080E090E00E946D010E94240360ED77E0C2
:1011E00080E090E00E946D010E94CF020E94A70261
:1011F00056CDE1EDF1E01382128288EE93E0A0E09B
:10120000B0E084839583A683B78384E491E09183DF
:10121000808385EC90E09587848784EC90E09787C5
:10122000868780EC90E0918B808B81EC90E0938BB3
:10123000828B82EC90E0958B848B86EC90E0978B90
:10124000868B118E128E138E148E0895A1E21A2EA3
:10125000AA1BBB1BFD010DC0AA1FBB1FEE1FFF1F5A
:10126000A217B307E407F50720F0A21BB30BE40BAA
:10127000F50B661F771F881F991F1A9469F76095F1
:101280007095809590959B01AC01BD01CF010895AB
:10129000EE0FFF1F0590F491E02D099481E090E09E
:0A12A000F8940C945309F894FFCF62
:1012AA00010001000100010001000000010000002E
:1012BA000100000000000100000001000100000020
:1012CA00000001000000010000000100010001000F
:1012DA0001000100000001000100000001000100FE
:1012EA00000000003E02A701D60185020702E501BF
:1012FA00F9010400050006000700080009000A00B9
:10130A000B000D0A002D2D2D2D2D2D2D2D2D007CA0
:10131A00205245414459207C0050696E20636F6E0B
:10132A0066696775726174696F6E3A005D5B005D2C
:10133A000052656D6F746520436F6E6E65637465E8
:10134A006400496E2052657374204D6F64650049CC
:0C135A006E2054657374204D6F646500B4
:00000001FF
