:100000000C9462000C948A000C948A000C948A0070
:100010000C948A000C948A000C948A000C948A0038
:100020000C948A000C948A000C948A000C948A0028
:100030000C948A000C948A000C948A000C948A0018
:100040000C949C030C948A000C940C040C94E6030E
:100050000C948A000C948A000C948A000C948A00F8
:100060000C948A000C948A000000000023002600F3
:10007000290000000008000201000003040700003E
:1000800000000000000000000000250028002B00F8
:1000900000000000240027002A00040404040404D3
:1000A0000404020202020202030303030303010227
:1000B00004081020408001020408102001020408F6
:1000C0001020470711241FBECFEFD8E0DEBFCDBF01
:1000D00011E0A0E0B1E0E6E4FFE002C005900D927F
:1000E000A835B107D9F722E0A8E5B1E001C01D921B
:1000F000A030B207E1F710E0C2E6D0E004C02197DB
:10010000FE010E949607C136D107C9F70E943E043E
:100110000C94A1070C94000090E0FC01E255FF4F05
:100120002491FC01E656FF4F8491882399F090E0DA
:10013000880F991FFC01E057FF4FA591B491FC0176
:10014000EA57FF4F859194918FB7F894EC91E22B89
:10015000EC938FBF0895833081F028F4813099F0BB
:100160008230A1F008958730A9F08830B9F084304A
:10017000D1F4809180008F7D03C0809180008F77C3
:1001800080938000089584B58F7702C084B58F7DF9
:1001900084BD08958091B0008F7703C08091B00036
:1001A0008F7D8093B00008951F93CF93DF93282F06
:1001B00030E0F901EE58FF4F8491F901E255FF4F0D
:1001C000D491F901E656FF4FC491CC23C9F0162F04
:1001D00081110E94AB00EC2FF0E0EE0FFF1FEA57F9
:1001E000FF4FA591B4918FB7F894111105C09C9160
:1001F000ED2FE095E92302C0EC91ED2BEC938FBF3E
:10020000DF91CF911F9108953FB7F89480915F01DE
:1002100090916001A0916101B091620126B5A89B07
:1002200005C02F3F19F00196A11DB11D3FBFBA2F88
:10023000A92F982F8827820F911DA11DB11DBC01E8
:10024000CD0142E0660F771F881F991F4A95D1F7AD
:1002500008958F929F92AF92BF92CF92DF92EF92CA
:10026000FF926B017C010E9404014B015C01C114EF
:10027000D104E104F104F1F00E940401DC01CB019E
:1002800088199909AA09BB09883E9340A105B105BF
:1002900070F321E0C21AD108E108F10888EE880E57
:1002A00083E0981EA11CB11CC114D104E104F10427
:1002B00019F7DDCFFF90EF90DF90CF90BF90AF9018
:1002C0009F908F900895CF92DF92EF92FF920F93BD
:1002D0001F93CF93DF936C017A018B01C0E0D0E0D4
:1002E000CE15DF0589F0D8016D918D01D601ED9114
:1002F000FC910190F081E02DC6010995892B11F444
:100300007E0102C02196ECCFC701DF91CF911F91F2
:100310000F91FF90EF90DF90CF900895089580E0C7
:1003200090E00895FC01538D448D252F30E0842FFB
:1003300090E0821B930B541710F0CF96089501970D
:100340000895FC01918D828D981761F0828DDF01F7
:10035000A80FB11D5D968C91928D9F5F9F73928FB8
:1003600090E008958FEF9FEF0895FC01918D828DAD
:10037000981731F0828DE80FF11D858D90E008957A
:100380008FEF9FEF0895FC01918D228D892F90E0D2
:10039000805C9F4F821B91098F739927089583E694
:1003A00091E00E94C30121E0892B09F420E0822F13
:1003B0000895FC01848DDF01A80FB11DA35ABF4F22
:1003C0002C91848D90E001968F739927848FA68954
:1003D000B7892C93A089B1898C9180648C93938D7B
:1003E000848D981306C00288F389E02D80818F7D6B
:1003F00080830895EF92FF920F931F93CF93DF9323
:10040000EC0181E0888F9B8D8C8D981305C0E88965
:10041000F989808185FD24C0F62E0B8D10E00F5FD9
:100420001F4F0F731127E02E8C8DE8120CC00FB6F2
:1004300007FCFACFE889F989808185FFF5CFCE01E5
:100440000E94D901F1CF8B8DFE01E80FF11DE35A17
:10045000FF4FF0820B8FEA89FB898081806207C0A1
:10046000EE89FF896083E889F989808180648083CF
:1004700081E090E0DF91CF911F910F91FF90EF907D
:100480000895CF93DF93EC01888D8823C9F0EA8922
:10049000FB89808185FD05C0A889B9898C9186FD7D
:1004A0000FC00FB607FCF5CF808185FFF2CFA8897A
:1004B000B9898C9185FFEDCFCE010E94D901E7CF9C
:1004C000DF91CF91089580E090E0892B29F00E9480
:1004D000CF0181110C940000089561E082E00E9438
:1004E000D40061E083E00E94D40061E084E00E94D7
:1004F000D40061E085E00C94D40061E086E00E94C5
:10050000D40061E087E00E94D40061E088E00E94AE
:10051000D40061E089E00C94D400009769F0FC01FC
:1005200001900020E9F73197AF01481B590BBC013E
:1005300083E691E00C94630180E090E00895CF930E
:10054000DF930E948D02EC0182E191E00E948D0216
:100550008C0F9D1FDF91CF9108950C948D028F9287
:100560009F92AF92BF92CF92DF92EF92FF920F9342
:100570001F93CF93DF93CDB7DEB7A1970FB6F89453
:10058000DEBF0FBECDBF6C01990FEE08FF08F7FE6E
:1005900031C0E0916301F09164010190F081E02DA0
:1005A0006DE283E691E009958C0122273327A901AA
:1005B0002C193D094E095F0919A2CE0181967C01D3
:1005C0009AE0892E912CA12CB12CCA01B901A50168
:1005D00094010E947407605DF70162937F01211509
:1005E00031054105510589F7CF010E948D02800F29
:1005F000911F1DC0A701960119A28E010F5D1F4F0B
:100600008AE0C82ED12CE12CF12CCA01B901A70136
:1006100096010E947407605DF80162938F012115B5
:1006200031054105510589F7CF010E948D02A19640
:100630000FB6F894DEBF0FBECDBFDF91CF911F91F3
:100640000F91FF90EF90DF90CF90BF90AF909F9071
:100650008F90089585E191E00E94AD0280E291E0E3
:100660000E94AD0282E291E00E94AD0284E291E03C
:100670000E94AD0289B186FB882780F990E00E9434
:10068000AF0289B1881F8827881F90E00E94AF02BF
:1006900083B1817090E00E94AF0283B18695817032
:1006A00090E00E94AF0280E291E00E94AD0282E2FF
:1006B00091E00E94AD0284E291E00E94AD0286E2E8
:1006C00091E00E94AD028AE291E00E94AD0280E2D8
:1006D00091E00E94AD0282E291E00E94AD0284E2CC
:1006E00091E00E94AD0289B182FB882780F990E0F9
:1006F0000E94AF0289B183FB882780F990E00E94B5
:10070000AF0289B18295817090E00E94AF0289B1F9
:1007100085FB882780F990E00E94AF0280E291E09B
:100720000E94AD0282E291E00E94AD0284E291E07B
:100730000C949F020E949C071F920F920FB60F927B
:1007400011242F933F938F939F93AF93BF938091E7
:100750005B0190915C01A0915D01B0915E013091CF
:100760005A0123E0230F2D3720F40196A11DB11D5E
:1007700005C026E8230F0296A11DB11D20935A0142
:1007800080935B0190935C01A0935D01B0935E0147
:1007900080915F0190916001A0916101B09162012F
:1007A0000196A11DB11D80935F0190936001A093FC
:1007B0006101B0936201BF91AF919F918F913F9181
:1007C0002F910F900FBE0F901F9018951F920F92B0
:1007D0000FB60F9211242F933F934F935F936F9314
:1007E0007F938F939F93AF93BF93EF93FF9383E692
:1007F00091E00E94D901FF91EF91BF91AF919F913C
:100800008F917F916F915F914F913F912F910F90B9
:100810000FBE0F901F9018951F920F920FB60F9258
:1008200011242F938F939F93EF93FF93E091730184
:10083000F09174018081E0917901F0917A0182FD5B
:1008400012C0908180917C018F5F8F7320917D0118
:10085000821751F0E0917C01F0E0ED59FE4F958F49
:1008600080937C0101C08081FF91EF919F918F91D6
:100870002F910F900FBE0F901F901895789484B50C
:10088000826084BD84B5816084BD85B5826085BD8C
:1008900085B5816085BD80916E00816080936E001A
:1008A000109281008091810082608093810080910C
:1008B00081008160809381008091800081608093BD
:1008C00080008091B10084608093B1008091B0007D
:1008D00081608093B00080917A00846080937A0078
:1008E00080917A00826080937A0080917A008160A2
:1008F00080937A0080917A00806880937A001092C9
:10090000C10086E00E948C0087E00E948C0088E095
:100910000E948C0089E00E948C0082E00E948C0082
:1009200083E00E948C0084E00E948C0085E00E949D
:100930008C008AE00E948C0061E086E00E94D40076
:1009400061E087E00E94D40061E088E00E94D4006A
:1009500061E089E00E94D40061E082E00E94D4005E
:1009600061E083E00E94D40061E084E00E94D40052
:1009700061E085E00E94D40060E08AE00E94D4003B
:10098000E0917301F091740182E08083E0916F0146
:10099000F09170011082E0917101F09172018FEC81
:1009A000808310927B01E0917701F091780186E0DD
:1009B0008083E0917501F091760180818061808370
:1009C000E0917501F0917601808188608083E091EB
:1009D0007501F0917601808180688083E0917501D6
:1009E000F091760180818F7D80838EE191E00E947D
:1009F0009F028EE191E00E949F0284E391E00E94B9
:100A00009F020E942A038EE191E00E949F0261E012
:100A10008DE00E94D4008AE391E00E949F0264EF7F
:100A200071E080E090E00E94290160E08DE00E948A
:100A3000D40064EF71E080E090E00E94290161E061
:100A40008DE00E94D4008DE391E00E949F0264EF4C
:100A500071E080E090E00E94290160E08DE00E945A
:100A6000D40064EF71E080E090E00E94290161E031
:100A70008DE00E94D4008FE391E00E949F0264EF1A
:100A800071E080E090E00E94290160E08DE00E942A
:100A9000D40064EF71E080E090E00E94290161E001
:100AA0008DE00E94D40081E491E00E949F0264EFF7
:100AB00071E080E090E00E94290160E08DE00E94FA
:100AC000D40064EF71E080E090E00E94290161E0D1
:100AD0008DE00E94D40083E491E00E949F0264EFC5
:100AE00071E080E090E00E94290160E08DE00E94CA
:100AF000D40064EF71E080E090E00E94290161E0A1
:100B00008DE00E94D40085E491E00E949F0264EF92
:100B100071E080E090E00E94290160E08DE00E9499
:100B2000D40064EF71E080E090E00E94290161E070
:100B30008DE00E94D40087E491E00E949F0264EF60
:100B400071E080E090E00E94290160E08DE00E9469
:100B5000D40064EF71E080E090E00E94290161E040
:100B60008DE00E94D40089E491E00E949F0264EF2E
:100B700071E080E090E00E94290160E08DE00E9439
:100B8000D40064EF71E080E090E00E94290161E010
:100B90008DE00E94D4008BE491E00E949F0264EFFC
:100BA00071E080E090E00E94290160E08DE00E9409
:100BB000D40064EF71E080E090E00E94290161E0E0
:100BC0008DE00E94D4008DE491E00E949F0264EFCA
:100BD00071E080E090E00E94290160E08DE00E94D9
:100BE000D40064EF71E080E090E00E942901CCE73E
:100BF000D0E008EB10E034EAE32E30E0F32E60E0C2
:100C00008AE00E94D40068EE73E080E090E00E94E9
:100C1000290161E08AE00E94D400FE018491F8017C
:100C2000C490F701D490DD20A9F081110E94AB009F
:100C30008D2D90E0880F991F88599F4FFC01A59139
:100C4000B4918C91C82231E020E009F430E0832F88
:100C5000922F02C080E090E0909359018093580158
:100C6000019711F461E001C060E08DE00E94D400C2
:100C700060E086E00E94D40061E087E00E94D4003A
:100C800060E088E00E94D40061E089E00E94D40026
:100C90000E942A0360ED77E080E090E00E94290145
:100CA0000E947D0264EF71E080E090E00E942901E3
:100CB00061E086E00E94D40060E087E00E94D400FA
:100CC00061E088E00E94D40060E089E00E94D400E6
:100CD0000E942A0360ED77E080E090E00E94290105
:100CE0000E947D0264EF71E080E090E00E942901A3
:100CF00060E082E00E94D40061E083E00E94D400C2
:100D000060E084E00E94D40061E085E00E94D400AD
:100D10000E942A0360ED77E080E090E00E942901C4
:100D20000E946D0264EF71E080E090E00E94290172
:100D300061E082E00E94D40060E083E00E94D40081
:100D400061E084E00E94D40060E085E00E94D4006D
:100D50000E942A0360ED77E080E090E00E94290184
:100D60000E946D0264EF71E080E090E00E94290132
:100D700060E086E00E94D40061E087E00E94D40039
:100D800061E088E00E94D40060E089E00E94D40025
:100D90000E942A0360ED77E080E090E00E94290144
:100DA0000E947D0264EF71E080E090E00E942901E2
:100DB00061E086E00E94D40060E087E00E94D400F9
:100DC00060E088E00E94D40061E089E00E94D400E5
:100DD0000E942A0360ED77E080E090E00E94290104
:100DE0000E947D0264EF71E080E090E00E942901A2
:100DF00060E082E00E94D40061E083E00E94D400C1
:100E000061E084E00E94D40060E085E00E94D400AC
:100E10000E942A0360ED77E080E090E00E942901C3
:100E20000E946D0264EF71E080E090E00E94290171
:100E300061E082E00E94D40060E083E00E94D40080
:100E400060E084E00E94D40061E085E00E94D4006C
:100E50000E942A0360ED77E080E090E00E94290183
:100E60000E946D0264EF71E080E090E00E94290131
:100E70008EE191E00E949F028FE491E00E949F0228
:100E80008EE191E00E949F020E946302B8CEE3E6E9
:100E9000F1E01382128288EE93E0A0E0B0E0848358
:100EA0009583A683B78384E091E09183808385EC6A
:100EB00090E09587848784EC90E09787868780EC24
:100EC00090E0918B808B81EC90E0938B828B82EC15
:100ED00090E0958B848B86EC90E0978B868B118EBF
:100EE000128E138E148E0895A1E21A2EAA1BBB1B1C
:100EF000FD010DC0AA1FBB1FEE1FFF1FA217B307E6
:100F0000E407F50720F0A21BB30BE40BF50B661FFB
:100F1000771F881F991F1A9469F7609570958095BF
:100F200090959B01AC01BD01CF010895EE0FFF1F0D
:100F30000590F491E02D099481E090E0F8940C94F0
:060F4000A107F894FFCFA9
:100F460000000000FA01630192014102C301A10100
:100F5600B5010D0A0052656C61792041203A2000E6
:100F66005B0058005D00207C200052656C61792092
:100F7600423A20005354415254003130003900386F
:100F86000037003600350034003300320031004EA1
:080F96004557204C4F4F50005D
:00000001FF
