:100000000C9462000C948A000C948A000C948A0070
:100010000C948A000C948A000C948A000C948A0038
:100020000C948A000C948A000C948A000C948A0028
:100030000C948A000C948A000C948A000C948A0018
:100040000C94DB020C948A000C944B030C94250353
:100050000C948A000C948A000C948A000C948A00F8
:100060000C948A000C948A000000000024002700F1
:100070002A0000000000250028002B0000000000DE
:1000800023002600290004040404040404040202DA
:100090000202020203030303030301020408102007
:1000A0004080010204081020010204081020000012
:1000B0000008000201000003040700000000000027
:1000C0000000420711241FBECFEFD8E0DEBFCDBF36
:1000D00011E0A0E0B1E0E8EFFEE002C005900D9273
:1000E000A435B107D9F722E0A4E5B1E001C01D9223
:1000F000A432B207E1F710E0C2E6D0E004C02197D5
:10010000FE010E946F07C136D107C9F70E947D0327
:100110000C947A070C940000833081F028F481302D
:1001200099F08230A1F008958730A9F08830B9F0B5
:100130008430D1F4809180008F7D03C08091800055
:100140008F7780938000089584B58F7702C084B53F
:100150008F7D84BD08958091B0008F7703C080911A
:10016000B0008F7D8093B0000895CF93DF93282F48
:1001700030E0F901E255FF4F8491F901E656FF4F57
:10018000D491F901EA57FF4FC491CC2391F081112A
:100190000E948C00EC2FF0E0EE0FFF1FE458FF4FA1
:1001A000A591B491EC91ED2381E090E021F480E001
:1001B00002C080E090E0DF91CF9108951F93CF932C
:1001C000DF93282F30E0F901E255FF4F8491F901C8
:1001D000E656FF4FD491F901EA57FF4FC491CC2363
:1001E000C9F0162F81110E948C00EC2FF0E0EE0F69
:1001F000FF1FEE58FF4FA591B4918FB7F8941111DE
:1002000005C09C91ED2FE095E92302C0EC91ED2B08
:10021000EC938FBFDF91CF911F910895CF93DF9320
:1002200090E0FC01E656FF4F2491FC01EA57FF4F96
:100230008491882361F190E0880F991FFC01E859AF
:10024000FF4FC591D491FC01EE58FF4FA591B49199
:10025000611109C09FB7F894888120958223888313
:10026000EC912E230BC0623061F49FB7F894388173
:10027000822F809583238883EC912E2B2C939FBF14
:1002800006C08FB7F894E8812E2B28838FBFDF91AB
:10029000CF9108958E3008F08E50877080648093DF
:1002A0007C0080917A00806480937A0080917A004B
:1002B00086FDFCCF809178002091790090E0922B10
:1002C00008953FB7F8948091830190918401A091A3
:1002D0008501B091860126B5A89B05C02F3F19F076
:1002E0000196A11DB11D3FBFBA2FA92F982F8827B6
:1002F000820F911DA11DB11DBC01CD0142E0660F11
:10030000771F881F991F4A95D1F708958F929F9262
:10031000AF92BF92CF92DF92EF92FF920E94610163
:100320004B015C0188ECC82ED12CE12CF12C0E94F1
:100330006101DC01CB0188199909AA09BB09883E32
:100340009340A105B10558F021E0C21AD108E10897
:10035000F10888EE880E83E0981EA11CB11CC11420
:10036000D104E104F10419F7FF90EF90DF90CF90F2
:10037000BF90AF909F908F900895CF92DF92EF92B1
:10038000FF920F931F93CF93DF936C017A018B0140
:10039000C0E0D0E0CE15DF0589F0D8016D918D0168
:1003A000D601ED91FC910190F081E02DC6010995F7
:1003B000892B11F47E0102C02196ECCFC701DF9199
:1003C000CF911F910F91FF90EF90DF90CF90089504
:1003D000089580E090E00895FC01538D448D252F11
:1003E00030E0842F90E0821B930B541710F0CF96CF
:1003F000089501970895FC01918D828D981761F001
:10040000828DDF01A80FB11D5D968C91928D9F5F4B
:100410009F73928F90E008958FEF9FEF0895FC01F6
:10042000918D828D981731F0828DE80FF11D858DA9
:1004300090E008958FEF9FEF0895FC01918D228D3C
:10044000892F90E0805C9F4F821B91098F739927C1
:10045000089587E891E00E941D0221E0892B09F4AC
:1004600020E0822F0895FC01848DDF01A80FB11DCB
:10047000A35ABF4F2C91848D90E001968F739927DA
:10048000848FA689B7892C93A089B1898C918064C7
:100490008C93938D848D981306C00288F389E02D88
:1004A00080818F7D80830895EF92FF920F931F9339
:1004B000CF93DF93EC0181E0888F9B8D8C8D981317
:1004C00005C0E889F989808185FD24C0F62E0B8D51
:1004D00010E00F5F1F4F0F731127E02E8C8DE81275
:1004E0000CC00FB607FCFACFE889F989808185FF37
:1004F000F5CFCE010E943302F1CF8B8DFE01E80FC4
:10050000F11DE35AFF4FF0820B8FEA89FB8980814E
:10051000806207C0EE89FF896083E889F98980815C
:100520008064808381E090E0DF91CF911F910F91F3
:10053000FF90EF900895CF93DF93EC01888D88238F
:10054000C9F0EA89FB89808185FD05C0A889B98940
:100550008C9186FD0FC00FB607FCF5CF808185FF1B
:10056000F2CFA889B9898C9185FFEDCFCE010E9489
:100570003302E7CFDF91CF91089580E090E0892B9F
:1005800029F00E94290281110C940000089500971F
:1005900069F0FC0101900020E9F73197AF01481B99
:1005A000590BBC0187E891E00C94BD0180E090E01C
:1005B00008950E9475071F920F920FB60F92112493
:1005C0002F933F938F939F93AF93BF9380917F011E
:1005D00090918001A0918101B091820130917E01C2
:1005E00023E0230F2D3720F40196A11DB11D05C076
:1005F00026E8230F0296A11DB11D20937E01809352
:100600007F0190938001A0938101B093820180913A
:10061000830190918401A0918501B091860101969A
:10062000A11DB11D8093830190938401A093850146
:10063000B0938601BF91AF919F918F913F912F9180
:100640000F900FBE0F901F9018951F920F920FB62C
:100650000F9211242F933F934F935F936F937F9348
:100660008F939F93AF93BF93EF93FF9387E891E0AE
:100670000E943302FF91EF91BF91AF919F918F91B3
:100680007F916F915F914F913F912F910F900FBE8E
:100690000F901F9018951F920F920FB60F92112472
:1006A0002F938F939F93EF93FF93E0919701F09196
:1006B00098018081E0919D01F0919E0182FD12C020
:1006C00090818091A0018F5F8F732091A10182178B
:1006D00051F0E091A001F0E0E957FE4F958F809333
:1006E000A00101C08081FF91EF919F918F912F9187
:1006F0000F900FBE0F901F901895789484B582606C
:1007000084BD84B5816084BD85B5826085BD85B5B5
:10071000816085BD80916E00816080936E00109233
:1007200081008091810082608093810080918100AE
:10073000816080938100809180008160809380003F
:100740008091B10084608093B1008091B00081609D
:100750008093B00080917A00846080937A008091C9
:100760007A00826080937A0080917A008160809321
:100770007A0080917A00806880937A001092C1009C
:1007800060E082E10E940E0160E083E10E940E01C0
:1007900060E084E10E940E0160E085E10E940E01AC
:1007A00062E082E00E940E0162E084E00E940E019D
:1007B00062E087E00E940E0162E088E00E940E0184
:1007C00062E08CE00E940E0161E083E00E940E0175
:1007D00061E085E00E940E0161E086E00E940E016A
:1007E00061E089E00E940E0161E08AE00E940E0152
:1007F00061E08BE00E940E0161E083E00E94DE0078
:1008000061E085E00E94DE0061E086E00E94DE009B
:1008100061E089E00E94DE0061E08AE00E94DE0083
:1008200060E08BE00E94DE000E94860161E083E0D0
:100830000E94DE0061E085E00E94DE0061E086E06B
:100840000E94DE0061E089E00E94DE0060E08AE054
:100850000E94DE0061E08BE00E94DE000E948601C3
:1008600061E083E00E94DE0061E085E00E94DE003E
:1008700061E086E00E94DE0060E089E00E94DE0028
:1008800061E08AE00E94DE0061E08BE00E94DE0011
:100890000E94860161E083E00E94DE0061E085E065
:1008A0000E94DE0060E086E00E94DE0061E089E0F8
:1008B0000E94DE0061E08AE00E94DE0061E08BE0E1
:1008C0000E94DE000E94860161E083E00E94DE005B
:1008D00060E085E00E94DE0061E086E00E94DE00CC
:1008E00061E089E00E94DE0061E08AE00E94DE00B3
:1008F00061E08BE00E94DE000E94860160E083E000
:100900000E94DE0061E085E00E94DE0061E086E09A
:100910000E94DE0061E089E00E94DE0061E08AE082
:100920000E94DE0061E08BE00E94DE000E948601F2
:1009300061E083E00E94DE0061E085E00E94DE006D
:1009400061E086E00E94DE0061E089E00E94DE0056
:1009500061E08AE00E94DE0061E08BE00E94DE0040
:100960000E948601E0919701F091980182E08083D6
:10097000E0919301F09194011082E0919501F09142
:1009800096018FEC808310929F01E0919B01F09182
:100990009C0186E08083E0919901F0919A01808129
:1009A00080618083E0919901F0919A018081886053
:1009B0008083E0919901F0919A0180818068808321
:1009C000E0919901F0919A0180818F7D808384E18B
:1009D00091E00E94C7028AE191E00E94C7028BE485
:1009E000282E81E0382E99E4492E91E0592E27E4F3
:1009F000622E21E0722EC5E4D1E031E4E32E31E035
:100A0000F32E47E3C42E41E0D42E5FE3A52E51E040
:100A1000B52E69E3862E61E0962E2FB7F89480916B
:100A20007F0190918001A0918101B09182012FBF3F
:100A300080937A0190937B01A0937C01B0937D0118
:100A40004091760150917701609178017091790120
:100A50008C019D01041B150B260B370BB901A80156
:100A60000093720110937301209374013093750108
:100A7000483E534061057105D0F180937601909313
:100A80007701A0937801B09379018BE00E94B500C3
:100A900061E0892BA9F483E00E94DE0061E085E03B
:100AA0000E94DE0061E086E00E94DE0061E089E0F5
:100AB0000E94DE0061E08AE00E94DE0061E014C076
:100AC00083E00E94DE0061E085E00E94DE0061E0DC
:100AD00086E00E94DE0061E089E00E94DE0061E0C5
:100AE0008AE00E94DE0060E08BE00E94DE008091E0
:100AF0007A0190917B01A0917C01B0917D014091A0
:100B00006E0150916F0160917001709171018C01C3
:100B10009D01041B150B260B370B00936A011093E4
:100B20006B0120936C0130936D01083C1105210588
:100B3000310508F491C180936E0190936F01A093E9
:100B40007001B093710185E10E944A018F3B914091
:100B50001CF48FEF9FEF08C085E10E944A018034AA
:100B600092403CF081E090E09093570180935601D1
:100B700004C0109257011092560184E10E944A016C
:100B80008F3B91401CF48FEF9FEF08C084E10E94DF
:100B90004A01803492403CF081E090E0909355010E
:100BA0008093540104C0109255011092540183E1C6
:100BB0000E944A018F3B91401CF48FEF9FEF08C0C9
:100BC00083E10E944A01803492403CF081E090E051
:100BD00090935B0180935A0104C010925B011092C4
:100BE0005A0182E10E944A018F3B91401CF48FEF31
:100BF0009FEF08C082E10E944A01803492403CF09D
:100C000081E090E0909359018093580104C01092C4
:100C100059011092580180915601909157018F3FD0
:100C20001FEF910751F4809154019091550181304B
:100C3000910579F48DE191E02CC00097F1F4809159
:100C40005401909155018130910541F48FE191E07B
:100C500020C0009741F483E291E01BC0009741F46B
:100C600085E291E016C00196D9F789E291E011C0C2
:100C70000196B1F78BE291E00CC0019789F7809162
:100C80005401909155018130910509F0E8C081E24D
:100C900091E0909369018093680180915A0190914D
:100CA0005B018F3F1FEF910751F4809158019091A4
:100CB000590181309105F9F48FE291E017C0009756
:100CC00051F4809158019091590181309105C1F4FE
:100CD00081E391E00BC00197A9F4809158019091B4
:100CE000590181309105E9F483E391E09093670124
:100CF000809366011DC0009751F485E391E0F6CF23
:100D0000009751F4D0926701C092660111C001961C
:100D1000C9F78BE391E0EACF0196A1F78DE391E06B
:100D2000E5CF009709F0A6C0909267018092660116
:100D300082E00E94B500892B59F4F0926501E0929F
:100D400064019091010181E089278093010106C02F
:100D500023E431E030936501209364016091010147
:100D600085E00E94DE0084E00E94B500892B59F4E2
:100D7000D0936301C09362019091000181E08927C3
:100D80008093000104C070926301609262016091DF
:100D9000000183E00E94DE0087E00E94B500892BFD
:100DA00029F450925D0140925C0104C030925D01D3
:100DB00020925C0188E00E94B500892B39F48DE413
:100DC00091E090935F0180935E0106C00FE411E013
:100DD00010935F0100935E018CE00E94B500892BA7
:100DE00039F421E531E0309361012093600106C0C0
:100DF00088E191E0909361018093600180916801A6
:100E0000909169010E94C7028091660190916701EB
:100E10000E94C70280916401909165010E94C702FF
:100E200080916201909163010E94C70280916001EC
:100E3000909161010E94C70280915E0190915F01D3
:100E40000E94C70280915C0190915D010E94C702DF
:100E50008AE191E00E94C7020E94BD02DECD0097A8
:100E600019F487E291E015CF019609F0F9CE8DE2F1
:100E700091E00FCF019609F045CFB0926701A092A3
:100E8000660156CFE7E8F1E01382128288EE93E024
:100E9000A0E0B0E084839583A683B78386E091E0E9
:100EA0009183808385EC90E09587848784EC90E043
:100EB0009787868780EC90E0918B808B81EC90E027
:100EC000938B828B82EC90E0958B848B86EC90E008
:100ED000978B868B118E128E138E148E0895EE0FC3
:100EE000FF1F0590F491E02D099481E090E0F894C3
:080EF0000C947A07F894FFCF7F
:100EF8000101000000005402BD01EC019B021D022B
:100F0800FB010F025265616479000D0A005A00580E
:100F18000043004100530044005100570045004D74
:100F2800003C003E004A004B004C00550049004F71
:100F38000021003100400032005200720054007459
:040F4800005900004C
:00000001FF
